{
  "_format": "hh-sol-artifact-1",
  "contractName": "Voting",
  "sourceName": "contracts/Voting.sol",
  "abi": [
    {
      "inputs": [
        {
          "internalType": "string[]",
          "name": "proposalNames",
          "type": "string[]"
        },
        {
          "internalType": "address[]",
          "name": "voterAddress",
          "type": "address[]"
        }
      ],
      "stateMutability": "nonpayable",
      "type": "constructor"
    },
    {
      "anonymous": false,
      "inputs": [
        {
          "indexed": true,
          "internalType": "address",
          "name": "voter",
          "type": "address"
        },
        {
          "indexed": true,
          "internalType": "address",
          "name": "delegate",
          "type": "address"
        }
      ],
      "name": "DelegationSuccessfull",
      "type": "event"
    },
    {
      "anonymous": false,
      "inputs": [
        {
          "indexed": true,
          "internalType": "address",
          "name": "previousOwner",
          "type": "address"
        },
        {
          "indexed": true,
          "internalType": "address",
          "name": "newOwner",
          "type": "address"
        }
      ],
      "name": "OwnershipTransferred",
      "type": "event"
    },
    {
      "anonymous": false,
      "inputs": [
        {
          "indexed": false,
          "internalType": "uint256",
          "name": "_proposalVoted",
          "type": "uint256"
        },
        {
          "indexed": true,
          "internalType": "address",
          "name": "_voter",
          "type": "address"
        }
      ],
      "name": "VoteCasted",
      "type": "event"
    },
    {
      "anonymous": false,
      "inputs": [
        {
          "indexed": true,
          "internalType": "address",
          "name": "_owner",
          "type": "address"
        },
        {
          "indexed": false,
          "internalType": "uint256",
          "name": "_proposalCount",
          "type": "uint256"
        }
      ],
      "name": "VotingStarted",
      "type": "event"
    },
    {
      "inputs": [],
      "name": "computeWinners",
      "outputs": [],
      "stateMutability": "nonpayable",
      "type": "function"
    },
    {
      "inputs": [
        {
          "internalType": "address",
          "name": "_to",
          "type": "address"
        }
      ],
      "name": "delegate",
      "outputs": [],
      "stateMutability": "nonpayable",
      "type": "function"
    },
    {
      "inputs": [
        {
          "internalType": "uint256",
          "name": "_proposalIndex",
          "type": "uint256"
        }
      ],
      "name": "getProposal",
      "outputs": [
        {
          "internalType": "string",
          "name": "_proposalName",
          "type": "string"
        },
        {
          "internalType": "uint256",
          "name": "_voteCount",
          "type": "uint256"
        }
      ],
      "stateMutability": "view",
      "type": "function"
    },
    {
      "inputs": [],
      "name": "getWinnerNames",
      "outputs": [
        {
          "internalType": "string[]",
          "name": "_winnernames",
          "type": "string[]"
        }
      ],
      "stateMutability": "view",
      "type": "function"
    },
    {
      "inputs": [],
      "name": "getWinningProposals",
      "outputs": [
        {
          "internalType": "uint256[]",
          "name": "",
          "type": "uint256[]"
        }
      ],
      "stateMutability": "view",
      "type": "function"
    },
    {
      "inputs": [],
      "name": "owner",
      "outputs": [
        {
          "internalType": "address",
          "name": "",
          "type": "address"
        }
      ],
      "stateMutability": "view",
      "type": "function"
    },
    {
      "inputs": [],
      "name": "renounceOwnership",
      "outputs": [],
      "stateMutability": "nonpayable",
      "type": "function"
    },
    {
      "inputs": [
        {
          "internalType": "address",
          "name": "newOwner",
          "type": "address"
        }
      ],
      "name": "transferOwnership",
      "outputs": [],
      "stateMutability": "nonpayable",
      "type": "function"
    },
    {
      "inputs": [
        {
          "internalType": "address",
          "name": "_voter",
          "type": "address"
        },
        {
          "internalType": "uint256",
          "name": "_proposalIndex",
          "type": "uint256"
        }
      ],
      "name": "vote",
      "outputs": [
        {
          "internalType": "bool",
          "name": "",
          "type": "bool"
        }
      ],
      "stateMutability": "nonpayable",
      "type": "function"
    },
    {
      "inputs": [
        {
          "internalType": "address",
          "name": "",
          "type": "address"
        }
      ],
      "name": "voters",
      "outputs": [
        {
          "internalType": "address",
          "name": "voter",
          "type": "address"
        },
        {
          "internalType": "address",
          "name": "delegate",
          "type": "address"
        },
        {
          "internalType": "uint256",
          "name": "vote",
          "type": "uint256"
        },
        {
          "internalType": "bool",
          "name": "voted",
          "type": "bool"
        }
      ],
      "stateMutability": "view",
      "type": "function"
    }
  ],
  "bytecode": "0x60806040523480156200001157600080fd5b50604051620021323803806200213283398181016040528101906200003791906200084e565b620000576200004b6200034160201b60201c565b6200034960201b60201c565b815160038190555060005b6003548110156200011a5760006040518060400160405280620000a8868581518110620000945762000093620008d3565b5b60200260200101516200040d60201b60201c565b81526020016000815250905060028190806001815401808255809150506001900390600052602060002090600202016000909190919091506000820151816000015560208201518160010155505050620001126001826200044360201b62000b741790919060201c565b905062000062565b5060005b8151811015620002d757600060405180608001604052808484815181106200014b576200014a620008d3565b5b602002602001015173ffffffffffffffffffffffffffffffffffffffff168152602001600073ffffffffffffffffffffffffffffffffffffffff168152602001600081526020016000151581525090508060016000858581518110620001b657620001b5620008d3565b5b602002602001015173ffffffffffffffffffffffffffffffffffffffff1673ffffffffffffffffffffffffffffffffffffffff16815260200190815260200160002060008201518160000160006101000a81548173ffffffffffffffffffffffffffffffffffffffff021916908373ffffffffffffffffffffffffffffffffffffffff16021790555060208201518160010160006101000a81548173ffffffffffffffffffffffffffffffffffffffff021916908373ffffffffffffffffffffffffffffffffffffffff1602179055506040820151816002015560608201518160030160006101000a81548160ff02191690831515021790555090505050620002cf6001826200044360201b62000b741790919060201c565b90506200011e565b50620002e86200045b60201b60201c565b73ffffffffffffffffffffffffffffffffffffffff167ff318b16025413645144ed83c64d2d30f089c10bc263cab68a036c00f011827be6003546040516200033191906200091d565b60405180910390a2505062000ac3565b600033905090565b60008060009054906101000a900473ffffffffffffffffffffffffffffffffffffffff169050816000806101000a81548173ffffffffffffffffffffffffffffffffffffffff021916908373ffffffffffffffffffffffffffffffffffffffff1602179055508173ffffffffffffffffffffffffffffffffffffffff168173ffffffffffffffffffffffffffffffffffffffff167f8be0079c531659141344cd1fd0a4f28419497f9722a3daafe3b4186f6b6457e060405160405180910390a35050565b60008160405160200162000422919062000987565b6040516020818303038152906040526200043c90620009e9565b9050919050565b6000818362000453919062000a88565b905092915050565b60008060009054906101000a900473ffffffffffffffffffffffffffffffffffffffff16905090565b6000604051905090565b600080fd5b600080fd5b600080fd5b6000601f19601f8301169050919050565b7f4e487b7100000000000000000000000000000000000000000000000000000000600052604160045260246000fd5b620004e8826200049d565b810181811067ffffffffffffffff821117156200050a5762000509620004ae565b5b80604052505050565b60006200051f62000484565b90506200052d8282620004dd565b919050565b600067ffffffffffffffff82111562000550576200054f620004ae565b5b602082029050602081019050919050565b600080fd5b600080fd5b600067ffffffffffffffff821115620005895762000588620004ae565b5b62000594826200049d565b9050602081019050919050565b60005b83811015620005c1578082015181840152602081019050620005a4565b60008484015250505050565b6000620005e4620005de846200056b565b62000513565b90508281526020810184848401111562000603576200060262000566565b5b62000610848285620005a1565b509392505050565b600082601f83011262000630576200062f62000498565b5b815162000642848260208601620005cd565b91505092915050565b6000620006626200065c8462000532565b62000513565b9050808382526020820190506020840283018581111562000688576200068762000561565b5b835b81811015620006d657805167ffffffffffffffff811115620006b157620006b062000498565b5b808601620006c0898262000618565b855260208501945050506020810190506200068a565b5050509392505050565b600082601f830112620006f857620006f762000498565b5b81516200070a8482602086016200064b565b91505092915050565b600067ffffffffffffffff821115620007315762000730620004ae565b5b602082029050602081019050919050565b600073ffffffffffffffffffffffffffffffffffffffff82169050919050565b60006200076f8262000742565b9050919050565b620007818162000762565b81146200078d57600080fd5b50565b600081519050620007a18162000776565b92915050565b6000620007be620007b88462000713565b62000513565b90508083825260208201905060208402830185811115620007e457620007e362000561565b5b835b81811015620008115780620007fc888262000790565b845260208401935050602081019050620007e6565b5050509392505050565b600082601f83011262000833576200083262000498565b5b815162000845848260208601620007a7565b91505092915050565b600080604083850312156200086857620008676200048e565b5b600083015167ffffffffffffffff81111562000889576200088862000493565b5b6200089785828601620006e0565b925050602083015167ffffffffffffffff811115620008bb57620008ba62000493565b5b620008c9858286016200081b565b9150509250929050565b7f4e487b7100000000000000000000000000000000000000000000000000000000600052603260045260246000fd5b6000819050919050565b620009178162000902565b82525050565b60006020820190506200093460008301846200090c565b92915050565b600081519050919050565b600081905092915050565b60006200095d826200093a565b62000969818562000945565b93506200097b818560208601620005a1565b80840191505092915050565b600062000995828462000950565b915081905092915050565b600081519050919050565b6000819050602082019050919050565b6000819050919050565b6000620009d38251620009bb565b80915050919050565b600082821b905092915050565b6000620009f682620009a0565b8262000a0284620009ab565b905062000a0f81620009c5565b9250602082101562000a525762000a4d7fffffffffffffffffffffffffffffffffffffffffffffffffffffffffffffffff83602003600802620009dc565b831692505b5050919050565b7f4e487b7100000000000000000000000000000000000000000000000000000000600052601160045260246000fd5b600062000a958262000902565b915062000aa28362000902565b925082820190508082111562000abd5762000abc62000a59565b5b92915050565b61165f8062000ad36000396000f3fe608060405234801561001057600080fd5b506004361061009e5760003560e01c80638da5cb5b116100665780638da5cb5b14610121578063a3ec138d1461013f578063c7f758a814610172578063ef788cd5146101a3578063f2fde38b146101c15761009e565b8063221705ea146100a357806331d2111c146100ad5780635c19a95c146100cb5780635f74bbde146100e7578063715018a614610117575b600080fd5b6100ab6101dd565b005b6100b561035c565b6040516100c29190610e8d565b60405180910390f35b6100e560048036038101906100e09190610f12565b6103f7565b005b61010160048036038101906100fc9190610f75565b61066e565b60405161010e9190610fd0565b60405180910390f35b61011f610934565b005b610129610948565b6040516101369190610ffa565b60405180910390f35b61015960048036038101906101549190610f12565b610971565b6040516101699493929190611024565b60405180910390f35b61018c60048036038101906101879190611069565b6109ee565b60405161019a9291906110e0565b60405180910390f35b6101ab610a99565b6040516101b891906111ce565b60405180910390f35b6101db60048036038101906101d69190610f12565b610af1565b005b6101e5610b8a565b600460006101f39190610cfd565b60008060005b60028054905081101561027a57826002828154811061021b5761021a6111f0565b5b906000526020600020906002020160010154111561025f5760028181548110610247576102466111f0565b5b90600052602060002090600202016001015492508091505b610273600182610b7490919063ffffffff16565b90506101f9565b50600481908060018154018082558091505060019003906000526020600020016000909190919091505560005b60028054905081101561035757600282815481106102c8576102c76111f0565b5b906000526020600020906002020160010154600282815481106102ee576102ed6111f0565b5b90600052602060002090600202016001015414801561030d5750818114155b1561033c5760048190806001815401808255809150506001900390600052602060002001600090919091909150555b610350600182610b7490919063ffffffff16565b90506102a7565b505050565b606060005b6004805490508110156103f3576103ba600260048381548110610387576103866111f0565b5b9060005260206000200154815481106103a3576103a26111f0565b5b906000526020600020906002020160000154610c08565b8282815181106103cd576103cc6111f0565b5b60200260200101819052506103ec600182610b7490919063ffffffff16565b9050610361565b5090565b33600160008273ffffffffffffffffffffffffffffffffffffffff1673ffffffffffffffffffffffffffffffffffffffff16815260200190815260200160002060030160009054906101000a900460ff1615610488576040517f08c379a000000000000000000000000000000000000000000000000000000000815260040161047f90611291565b60405180910390fd5b3373ffffffffffffffffffffffffffffffffffffffff168273ffffffffffffffffffffffffffffffffffffffff16036104f6576040517f08c379a00000000000000000000000000000000000000000000000000000000081526004016104ed90611323565b60405180910390fd5b6000600160003373ffffffffffffffffffffffffffffffffffffffff1673ffffffffffffffffffffffffffffffffffffffff1681526020019081526020016000209050600073ffffffffffffffffffffffffffffffffffffffff168160000160009054906101000a900473ffffffffffffffffffffffffffffffffffffffff1673ffffffffffffffffffffffffffffffffffffffff16036105cc576040517f08c379a00000000000000000000000000000000000000000000000000000000081526004016105c3906113b5565b60405180910390fd5b828160010160006101000a81548173ffffffffffffffffffffffffffffffffffffffff021916908373ffffffffffffffffffffffffffffffffffffffff1602179055508273ffffffffffffffffffffffffffffffffffffffff163373ffffffffffffffffffffffffffffffffffffffff167f78c4c88ceb883374ea0211e33524f229ed71c5d8a9929b976fa0d58a72c8c08e60405160405180910390a3505050565b60008160035481106106b5576040517f08c379a00000000000000000000000000000000000000000000000000000000081526004016106ac90611447565b60405180910390fd5b83600160008273ffffffffffffffffffffffffffffffffffffffff1673ffffffffffffffffffffffffffffffffffffffff16815260200190815260200160002060030160009054906101000a900460ff1615610746576040517f08c379a000000000000000000000000000000000000000000000000000000000815260040161073d90611291565b60405180910390fd5b6000600160008773ffffffffffffffffffffffffffffffffffffffff1673ffffffffffffffffffffffffffffffffffffffff16815260200190815260200160002090508573ffffffffffffffffffffffffffffffffffffffff163373ffffffffffffffffffffffffffffffffffffffff16148061081257508060010160009054906101000a900473ffffffffffffffffffffffffffffffffffffffff1673ffffffffffffffffffffffffffffffffffffffff163373ffffffffffffffffffffffffffffffffffffffff16145b610851576040517f08c379a0000000000000000000000000000000000000000000000000000000008152600401610848906113b5565b60405180910390fd5b848160020181905550610893600160028781548110610873576108726111f0565b5b906000526020600020906002020160010154610b7490919063ffffffff16565b600286815481106108a7576108a66111f0565b5b90600052602060002090600202016001018190555060018160030160006101000a81548160ff0219169083151502179055508573ffffffffffffffffffffffffffffffffffffffff167fd8d46ecf72f6103ff400e47d1b5fdfe248d4ca34a4acd39f63fbe903c8f7e7bd8660405161091f9190611467565b60405180910390a26001935050505092915050565b61093c610b8a565b6109466000610c31565b565b60008060009054906101000a900473ffffffffffffffffffffffffffffffffffffffff16905090565b60016020528060005260406000206000915090508060000160009054906101000a900473ffffffffffffffffffffffffffffffffffffffff16908060010160009054906101000a900473ffffffffffffffffffffffffffffffffffffffff16908060020154908060030160009054906101000a900460ff16905084565b60606000826003548110610a37576040517f08c379a0000000000000000000000000000000000000000000000000000000008152600401610a2e90611447565b60405180910390fd5b610a6560028581548110610a4e57610a4d6111f0565b5b906000526020600020906002020160000154610c08565b60028581548110610a7957610a786111f0565b5b906000526020600020906002020160010154809350819450505050915091565b60606004805480602002602001604051908101604052809291908181526020018280548015610ae757602002820191906000526020600020905b815481526020019060010190808311610ad3575b5050505050905090565b610af9610b8a565b600073ffffffffffffffffffffffffffffffffffffffff168173ffffffffffffffffffffffffffffffffffffffff1603610b68576040517f08c379a0000000000000000000000000000000000000000000000000000000008152600401610b5f906114f4565b60405180910390fd5b610b7181610c31565b50565b60008183610b829190611543565b905092915050565b610b92610cf5565b73ffffffffffffffffffffffffffffffffffffffff16610bb0610948565b73ffffffffffffffffffffffffffffffffffffffff1614610c06576040517f08c379a0000000000000000000000000000000000000000000000000000000008152600401610bfd906115c3565b60405180910390fd5b565b606081604051602001610c1b919061160e565b6040516020818303038152906040529050919050565b60008060009054906101000a900473ffffffffffffffffffffffffffffffffffffffff169050816000806101000a81548173ffffffffffffffffffffffffffffffffffffffff021916908373ffffffffffffffffffffffffffffffffffffffff1602179055508173ffffffffffffffffffffffffffffffffffffffff168173ffffffffffffffffffffffffffffffffffffffff167f8be0079c531659141344cd1fd0a4f28419497f9722a3daafe3b4186f6b6457e060405160405180910390a35050565b600033905090565b5080546000825590600052602060002090810190610d1b9190610d1e565b50565b5b80821115610d37576000816000905550600101610d1f565b5090565b600081519050919050565b600082825260208201905092915050565b6000819050602082019050919050565b600081519050919050565b600082825260208201905092915050565b60005b83811015610da1578082015181840152602081019050610d86565b60008484015250505050565b6000601f19601f8301169050919050565b6000610dc982610d67565b610dd38185610d72565b9350610de3818560208601610d83565b610dec81610dad565b840191505092915050565b6000610e038383610dbe565b905092915050565b6000602082019050919050565b6000610e2382610d3b565b610e2d8185610d46565b935083602082028501610e3f85610d57565b8060005b85811015610e7b5784840389528151610e5c8582610df7565b9450610e6783610e0b565b925060208a01995050600181019050610e43565b50829750879550505050505092915050565b60006020820190508181036000830152610ea78184610e18565b905092915050565b600080fd5b600073ffffffffffffffffffffffffffffffffffffffff82169050919050565b6000610edf82610eb4565b9050919050565b610eef81610ed4565b8114610efa57600080fd5b50565b600081359050610f0c81610ee6565b92915050565b600060208284031215610f2857610f27610eaf565b5b6000610f3684828501610efd565b91505092915050565b6000819050919050565b610f5281610f3f565b8114610f5d57600080fd5b50565b600081359050610f6f81610f49565b92915050565b60008060408385031215610f8c57610f8b610eaf565b5b6000610f9a85828601610efd565b9250506020610fab85828601610f60565b9150509250929050565b60008115159050919050565b610fca81610fb5565b82525050565b6000602082019050610fe56000830184610fc1565b92915050565b610ff481610ed4565b82525050565b600060208201905061100f6000830184610feb565b92915050565b61101e81610f3f565b82525050565b60006080820190506110396000830187610feb565b6110466020830186610feb565b6110536040830185611015565b6110606060830184610fc1565b95945050505050565b60006020828403121561107f5761107e610eaf565b5b600061108d84828501610f60565b91505092915050565b600082825260208201905092915050565b60006110b282610d67565b6110bc8185611096565b93506110cc818560208601610d83565b6110d581610dad565b840191505092915050565b600060408201905081810360008301526110fa81856110a7565b90506111096020830184611015565b9392505050565b600081519050919050565b600082825260208201905092915050565b6000819050602082019050919050565b61114581610f3f565b82525050565b6000611157838361113c565b60208301905092915050565b6000602082019050919050565b600061117b82611110565b611185818561111b565b93506111908361112c565b8060005b838110156111c15781516111a8888261114b565b97506111b383611163565b925050600181019050611194565b5085935050505092915050565b600060208201905081810360008301526111e88184611170565b905092915050565b7f4e487b7100000000000000000000000000000000000000000000000000000000600052603260045260246000fd5b7f566f74696e672053797374656d3a2054686520766f7465722068617320616c7260008201527f6561647920766f74656400000000000000000000000000000000000000000000602082015250565b600061127b602a83611096565b91506112868261121f565b604082019050919050565b600060208201905081810360008301526112aa8161126e565b9050919050565b7f566f74696e672053797374656d3a2053656c662064656c65676174696f6e206960008201527f73206e6f7420616c6c6f77656400000000000000000000000000000000000000602082015250565b600061130d602d83611096565b9150611318826112b1565b604082019050919050565b6000602082019050818103600083015261133c81611300565b9050919050565b7f566f74696e672053797374656d3a2054686973206164647265737320646f657360008201527f206e6f74206861766520726967687420746f20766f7465000000000000000000602082015250565b600061139f603783611096565b91506113aa82611343565b604082019050919050565b600060208201905081810360008301526113ce81611392565b9050919050565b7f566f74696e672053797374656d3a2050726f706f73616c20696e646578206f7560008201527f74206f6620626f756e6473000000000000000000000000000000000000000000602082015250565b6000611431602b83611096565b915061143c826113d5565b604082019050919050565b6000602082019050818103600083015261146081611424565b9050919050565b600060208201905061147c6000830184611015565b92915050565b7f4f776e61626c653a206e6577206f776e657220697320746865207a65726f206160008201527f6464726573730000000000000000000000000000000000000000000000000000602082015250565b60006114de602683611096565b91506114e982611482565b604082019050919050565b6000602082019050818103600083015261150d816114d1565b9050919050565b7f4e487b7100000000000000000000000000000000000000000000000000000000600052601160045260246000fd5b600061154e82610f3f565b915061155983610f3f565b925082820190508082111561157157611570611514565b5b92915050565b7f4f776e61626c653a2063616c6c6572206973206e6f7420746865206f776e6572600082015250565b60006115ad602083611096565b91506115b882611577565b602082019050919050565b600060208201905081810360008301526115dc816115a0565b9050919050565b6000819050919050565b6000819050919050565b611608611603826115e3565b6115ed565b82525050565b600061161a82846115f7565b6020820191508190509291505056fea2646970667358221220b73edfd70906e9f646723659f2ee5661adbb07323c0e4bf852e6b45f876a40b464736f6c63430008110033",
  "linkReferences": {},
  "deployedLinkReferences": {}
}